:020000040800F2
:10000000080A002001010008A9270008ED200008C7
:10001000A52700089D010008B53500080000000074
:100020000000000000000000000000009134000803
:10003000B9010008000000008D3400089534000864
:100040001B0100081B0100081B0100081B01000820
:100050001B0100081B0100081B0100081B01000810
:100060001B0100081B0100081B0100081B01000800
:100070001B0100081B010008A1010008AD010008D8
:100080001B0100081B0100081B0100081B010008E0
:100090001B0100081B0100081B0100081B010008D0
:1000A0001B0100081B0100081B0100081B010008C0
:1000B0001B0100081B0100081B0100081B010008B0
:1000C0001B0100081B0100081B0100081B010008A0
:1000D0001B010008A93500081B0100081B010008CE
:1000E0001B0100081B0100081B010008DFF80CD0F1
:1000F00000F03CF800480047B9350008080A002025
:100100000648804706480047FEE7FEE7FEE7FEE7B1
:10011000FEE7FEE7FEE7FEE7FEE7FEE799340008AC
:10012000ED00000840EA01039B0703D009E008C97D
:10013000121F08C0042AFAD203E011F8013B00F8AC
:10014000013B521EF9D27047D2B201E000F8012BF8
:10015000491EFBD270470022F6E710B513460A4647
:1001600004461946FFF7F0FF204610BD1CB50948AC
:100170000090094801900546009C06E0E06840F0C8
:10018000010394E8070098471034AC42F6D3FFF718
:10019000B1FF000084390008A4390008FEE7000020
:1001A00040F2D840C2F2000000F08CB840F2944017
:1001B000C2F2000000F086B870470000EFF3108034
:1001C00072B600BFFEE70000014690F82100022849
:1001D00016D10868D1E90FC3026822F00E0202604E
:1001E000026822F001020260012000FA03F2CCF85A
:1001F000042081F821000020002281F8202070478F
:10020000042088630120002281F82020704700002C
:1002100090F82110022923D10268116821F00E0103
:1002200011602F211368C4F202018A4240F20401D6
:10023000C4F2020123F00103136015DD3023C4F280
:1002400002039A421CD04423C4F202039A421BD0F8
:100250005823C4F202039A421CD14FF4803321E0A8
:1002600004218163012070470823C4F202039A42EB
:100270000ED01C23C4F202039A420BD1102311E0CA
:100280004FF480730EE000BF4FF480530AE000BFCC
:10029000012307E001F1680C4FF08073624508BF4D
:1002A0004FF480130B60012180F82110426B002174
:1002B00080F8201022B180B590470021BDE8804031
:1002C0000846704710B5D0E90FCE0168DCF8003061
:1002D0000A6823FA0EF35C072AD512F0040427D02B
:1002E0000A68920603D40A6822F004020A602F22E8
:1002F000C4F20202914240F20402C4F202025BDD47
:100300003023C4F20203994272D04423C4F20203A0
:10031000994273D05823C4F20203994240F07A8084
:100320004FF480231360C16A002940F098806FE089
:100330009C0727D512F0020424D00A68920606D43E
:100340000A6822F00A020A60012280F821202F2286
:10035000C4F20202914240F20402C4F202023BDD06
:100360003023C4F20203994260D04423C4F2020352
:1003700099425FD05823C4F20203994260D14FF4EE
:10038000003365E01B0743D512F0080208BF10BD1B
:100390000A6822F00E020A60012101FA0EF2CCF87E
:1003A0000420816380F82110016B0022002980F86D
:1003B000202054D12CE000BF0823C4F2020399424C
:1003C00022D01C23C4F20203994223D1402313609C
:1003D000C16A002943D11BE00823C4F202039942F9
:1003E0002CD01C23C4F20203994229D120232FE0F0
:1003F0004FF480631360C16A89BB09E04FF4804306
:100400001360C16A59BB03E004231360C16A31BBA6
:1004100010BD00BF02F168044FF08063A14208BF25
:100420004FF480031360C16AC9B9F1E74FF4007358
:100430000EE000BF4FF400530AE000BF022307E0C4
:1004400002F168044FF00073A14208BF4FF400139B
:100450001360816A0022002980F82020D8D0BDE8EE
:1004600010400847014600284FF0010008BF7047C0
:100470002DE9F0470A684FF6F873CBF6FD7302EBEF
:10048000030C4CF6CD43CCF6CC43ACFB033C6FF0F5
:100490000307002607EA9C07C4F2020601F10C0AD2
:1004A000C1E90F670227D1E9013E9AE83004D1E99A
:1004B000069881F82170176843F6F076B7433B43FE
:1004C00043EA0E0323432B4343EA0A0343EA0903A7
:1004D00043EA0803136000228A6381F8210081F84F
:1004E00020200020BDE8F04770470000B0B504466A
:1004F00000F01EF9054640F20000C2F2000000784C
:10050000611C18BF044400BF00F012F9401BA04258
:10051000FAD3B0BD2DE9F04F82B00E68002E00F086
:10052000FD8041F20042C4F20102042340F2004E79
:10053000904208BF03234FF6FF7CC4F2010E0093E4
:1005400000240123C1F2100C4FF0000A4FF0000903
:1005500044E000BF012704F00C030F229A402BEA6D
:10056000020207FA03F34FEA9A051A4346F82520D8
:100570004E6840F20C45F202DEF8082054BF22EA31
:10058000080242EA0802C4F20105CEF808202A68EF
:10059000B30254BF22EA080242EA08022A60B30307
:1005A000DEF8042054BF22EA080242EA0802F303FC
:1005B000CEF80420DEF800204FF0010354BF22EAF9
:1005C000080242EA0802CEF800200E680AF1010A89
:1005D00036FA0AF204F1040400F0A08003FA0AFBE0
:1005E00016EA0B08F1D04E68664511DC122E55D87C
:1005F000DFE806F0340A44485454545454545454D4
:1006000054545454544C5000D1F80C9046E000BF60
:100610004FF6FF72C1F2210296420FDC0022C1F2B6
:10062000110296421AD00022C1F21202964215D04F
:100630000022C1F22102964210D02FE00022C1F226
:10064000220296420AD00022C1F23102964205D01F
:100650000022C1F23202964220D100BF8A684AB11C
:10066000012A14BFC0F814B0C0F810B04FF0080948
:1006700014E000BF4FF0040910E000BFCA6802F1A7
:1006800008090BE04FF0000908E000BFCA6802F15A
:10069000040903E0CA6802F10C0900BF22460646BD
:1006A000B8F5807F24BF203A043637680F2595407F
:1006B00027EA050509FA02F22A433260CA79D2060E
:1006C0007FF583AF41F21803C4F202031A68AEF556
:1006D0007E7642F001021A601A6802F0010201926D
:1006E000019A2AF0030256F802B040F60002C4F262
:1006F0000102904210D040F60042C4F20102904242
:100700003FF428AF41F20002C4F20102009F904280
:1007100008BF02271FE700BF00271CE702B0BDE8A3
:10072000F08F0000002A08BF090401617047000033
:1007300040F20060C2F2000000687047002804BF69
:1007400001207047F0B581B0044690F83D0028B90B
:10075000002084F83C00204600F090F9242084F822
:100760003D002068016821F001010160016841F449
:1007700000410160016821F40041016000F048FB84
:10078000636848F2A16CC0F2010C40F60011C0F29F
:100790003D0163453CBF48F28041C0F21E018842E2
:1007A00002D2012001B0F0BD4DF68361C4F21B31CD
:1007B000A0FB01122168970CD1F804E04FF4967663
:1007C0002EF03F0545EA92454D60774348F63816CE
:1007D0000D6AC0F24106A7FB067625F03F07634588
:1007E00038BF960C721C3A430A62CA6948F2A06686
:1007F0004CF6FF77C0F20106B34222EA07020BD89B
:1008000001385B00B0FBF3F001306FF31F300428B8
:1008100098BF04201BE000BFA768013857B1192713
:100820007B43B0FBF3F001306FF31F3070B100F584
:10083000804007E003EB4303B0FBF3F001306FF3BC
:100840001F3018B100F5004001E000BF0120104347
:10085000C8610868D4E9072320F0C000104318439A
:100860000860886848F2FF3204F10C0790438CCF8F
:1008700018431043A6698860C86820F0FF00384319
:100880003043C860086840F0010008600020202163
:10089000206484F83D10206384F83E0001B0F0BD70
:1008A0002DE9F04383B01E46174689460446FFF7FC
:1008B0003FFF94F83D10202924D10546206800BF51
:1008C000816989071AD5FFF733FF411B20681A2970
:1008D000F6D381698907F3D500202021206384F8AD
:1008E0003D1084F83E00216C41F02001216484F821
:1008F0003C00022003B0BDE8F08300BF94F83C1038
:10090000012903D1022003B0BDE8F083012184F85E
:100910003C100168C90703D1016841F00101016081
:10092000016840F2020821F400610160212184F88D
:100930003D10102184F83E10002121646762668515
:10094000618DC0F201082185A8F10211E162E16A1E
:100950000A9E11F5803F18BF01291DD1016841F49D
:100960008071016020464FF001110022334600954E
:1009700001F01CFC50B120680068C00544BF4FF472
:1009800000702064012003B0BDE8F0832069B0F559
:10099000804F07D1FE2015E00829DFD0216B1229F6
:1009A000DCD0DFE7062000EAD9102168F0300861CA
:1009B00008F10601204632462B4601F0DDFC0028F6
:1009C000E0D1FF20216800EA090008612046414685
:1009D00032462B4601F0D0FC0028D3D100200290F3
:1009E00020684169029180690290029806E000BF88
:1009F000204631462A4601F07BFB18BB208D68B3A8
:100A0000204631462A4601F023FDD8B9606A2168A4
:100A1000024612F8013B0B616262628D013A628507
:100A2000228D531E23854F697F07E1D51B04DFD03C
:100A3000437802300B616062608D01386085901EE2
:100A40002085D5E7206C04289CD12068016841F4FA
:100A500000710160012003B0BDE8F08320680168E7
:100A600041F400710160202084F83D00002084F8EA
:100A70003E0084F83C0003B0BDE8F08310B586B0BA
:100A800045F200410068C4F200010022884204924D
:100A900002D006B010BD00BF41F21804C4F2020437
:100AA000206840F008002060206800F008000190F5
:100AB0000198C0200290122003900320059001F5B8
:100AC000384002A9FFF726FD606840F4001060601E
:100AD000606800F400100190019806B010BD00009D
:100AE00040F2000040F20061C2F20000C2F20001D8
:100AF00000780A68104408607047000080B542F230
:100B00000000C4F20200016841F0100101600320FE
:100B100000F08CF80F2000F005F800F027F8002016
:100B200080BD000070B540F20006C2F2000640F23F
:100B300008013278C2F200014FF47A730968B3FBFE
:100B4000F2F20446B1FBF2F1084600F089FB0F2CEB
:100B50004FF0010508D838B94FF0FF302146002288
:100B6000002500F037F87460284670BD82B041F26D
:100B70001800C4F202000168022241F00101016084
:100B8000016801F0010101910199416841F0805132
:100B90004160406800F08050009000980420C4F24A
:100BA0000100016862F31A61016002B07047000041
:100BB000002848BF704700F01F01012202FA01F12E
:100BC0001C2202EAD0004EF20012CEF20002815046
:100BD0007047000010B54EF60C5CCEF2000CDCF84D
:100BE0000030C3F3022E8EF00704042C28BF042427
:100BF000BEF103034FF0FF3E0EFA04F438BF0023AA
:100C0000A14399400EFA03F39A43114300F00F02F7
:100C100000F160430901043A03F56443624400288B
:100C200048BF02F10C03197010BD00004EF60C51C4
:100C3000CEF200010A684FF6FF031A4060F30A2261
:100C400042F0806040F0FD7008607047002804BFEB
:100C5000012070472DE9F04381B042F20008C4F250
:100C600002080446D8F800000D4600F0070088424C
:100C70000CD2D8F8000020F007002843C8F8000084
:100C8000D8F8000000F00700A8426CD1206841F2BB
:100C900004098107C4F2020917D5410705D5D9F81F
:100CA000001041F4E061C9F80010010705D5D9F83A
:100CB000001041F46051C9F80010D9F80010A26882
:100CC00021F0F0011143C9F80010C00742D1D8F853
:100CD000000000F00700A8420CD9D8F8000020F06E
:100CE00007002843C8F80000D8F8000000F007000B
:100CF000A84238D12068410707D5D9F80010E2682A
:100D000021F4E0611143C9F80010000708D5D9F8B3
:100D10000000216920F4605040EAC100C9F80000D9
:100D2000D9F8002002F00C00082841F20020C0F29F
:100D30007A0051D143F2A263C2F38341C0F60003AB
:100D4000595CD2033CD440F60010C0F23D00484349
:100D500042E000BF606802280AD001282AD159F871
:100D6000041C890308D4012001B0BDE8F08300BF52
:100D700059F8041C8901F6D5D9F8001021F00301B7
:100D80000843C9F80000FFF7D3FC064641F2883754
:100D9000D9F80000616800F00C00B0EB810F96D02C
:100DA000FFF7C6FC801BB842F2D9032001B0BDE8B2
:100DB000F08300BF59F8041C8907D4D5DCE700BFD5
:100DC000D9F8002043F2A063C2F34042C0F600030A
:100DD0009A5C4843B0FBF2F0D9F8001043F2886205
:100DE000C1F30311C0F60002515C40F2080220FA80
:100DF00001F140F20400C2F200000068C2F20002F9
:100E00001160FFF78FFE002001B0BDE8F083000005
:100E100040F2080041F20401C2F20000C4F20201F3
:100E20000068096843F29862C1F30221C0F600022B
:100E3000515CC8407047000040F2080041F20401D4
:100E4000C2F20000C4F202010068096843F298622D
:100E5000C1F3C221C0F60002515CC84070470000D7
:100E6000002804BF012070472DE9F04182B00446FC
:100E7000007841F20006C007C4F202060CD0706888
:100E800000F00C00042840F081803068800303D516
:100E90006068002800F04E81207880071BD57068BC
:100EA00010F00C0F09D0706800F00C00082840F01A
:100EB0008B807068C00300F187803068800703D59D
:100EC0002069012840F036813068616920F0F8001F
:100ED00040EAC10030602078000713D42078400732
:100EE0002CD4E569002D00F02081706800F00C0022
:100EF000082840F0AF80012D40F00C81012002B0A5
:100F0000BDE8F081A069002800F08C800020C4F2C8
:100F100042200121C0F88014FFF70AFC054600BFFB
:100F2000706A800700F1BA80FFF702FC401B0228BC
:100F3000F6D9032002B0BDE8F08100BFF0695FEA96
:100F4000C00808D4F06940F08050F061F06900F00A
:100F500080500090009847F20007C4F200073868FC
:100F6000C0054DD4386840F480703860FFF7E0FB6E
:100F7000054600BF3868C00542D4FFF7D9FB401BC7
:100F80006428F7D9032002B0BDE8F081706800F052
:100F90000C00082803D17068C0033FF576AF606885
:100FA000002800F00981B0F5A02F00F01D81B0F5F8
:100FB000803F00F01D81306820F480303060306860
:100FC00020F4802017E100BF2069002840F20000D3
:100FD000C4F2422000F08C8001210160FFF7A8FBE1
:100FE000054600BF306880073FF56EAFFFF7A0FBF6
:100FF000401B0228F6D9032002B0BDE8F08100BFF3
:10100000E068002800F09A80052800F0B1800128EF
:1010100000F0B280306A20F001003062306A20F0C7
:101020000400ACE00020C4F242200021C0F880148B
:10103000FFF77EFB054600BF706A80077FF54EAF65
:10104000FFF776FB401B0228F6D9032002B0BDE86B
:10105000F08100BF0027C4F2422700203866FFF766
:1010600067FB022D05460DD13068800140F1D68026
:10107000FFF75EFB401B02284FF00300F4D902B0DB
:10108000BDE8F081306880014FD5FFF751FB401B70
:1010900002284FF00300F5D9F1E700BF40F2080045
:1010A000C2F20000006844F6D351C1F26201A0FB15
:1010B0000101480A019000BF00BF0198411E0028AD
:1010C00001913FF40BAF00BF0198411E0028019130
:1010D0003FF404AF00BF0198411E002801913FF486
:1010E000FDAE00BF0198411E00280191E4D1F5E654
:1010F00000210160FFF71CFB054600BF3068800738
:101100007FF5E9AEFFF714FB401B02284FF0030008
:10111000F4D9B4E77068216A00F480328A4209D1B8
:10112000616A00F47010884204D1002002B0BDE86A
:10113000F08100BF012002B0BDE8F081306A20F0EC
:1011400001003062306A20F004003062FFF7F0FAEC
:10115000054641F2883700BF306A800722D5FFF785
:10116000E7FA401BB8424FF00300F5D987E700BF0C
:10117000306A40F004003062306A40F001003062B2
:10118000FFF7D6FA054641F2883700BF306A80077C
:1011900008D4FFF7CDFA401BB842F7D9032002B0BC
:1011A000BDE8F081B8F1000F3FF59BAEF06920F08B
:1011B0008050F06195E600BF306820F480303060E8
:1011C000306820F480203060FFF7B2FA054600BF97
:1011D000306880037FF560AEFFF7AAFA401B6428F1
:1011E0004FF00300F4D94AE7306840F480203060C3
:1011F000306840F480303060FFF79AFA054600BF4F
:10120000306880033FF548AEFFF792FA401B642830
:10121000F6D9032002B0BDE8F08100BF206AB0F526
:10122000803F05D17168A26821F4003111437160DB
:101230007168626A21F474111143084370600120DF
:101240003866FFF775FA0446306880013FF56DAFE8
:10125000FFF76EFA001B02284FF00300F4D90EE7E7
:10126000411E0020B0EB116F1CBF012070474EF2F1
:101270001002CEF2000251604EF62351CEF2000170
:10128000F0230B70072190601160704790F83C20AC
:10129000012A4FF0020236D010B580F83D200268D6
:1012A000D2F804E0D2F808C00C682EF07003234393
:1012B00040F2FF74C4F20004A24253600ADCB2F1AF
:1012C000804F13D040F20043C4F200039A420DD085
:1012D00011E000BF42F60043C4F201039A4205D078
:1012E00040F60003C4F200039A4204D149682CF08E
:1012F0008003194391600121002280F83D1080F89D
:101300003C20BDE81040104670470000002804BF94
:101310000120704710B5044690F83D0028B9002020
:1013200084F83C00204600F067F8022084F83D0075
:10133000206840F2FF730268C4F2000342F6004CDA
:101340009842C4F2010C15DCB0F1804F1AD040F283
:101350000041C4F20001884214D0984218DCB0F178
:10136000804F1DD040F20041C4F20001884217D0E6
:101370001AE000BF604505D040F60001C4F200014C
:101380008842EAD1A16822F070020A439842E6DD61
:10139000604505D040F60001C4F20001884203D147
:1013A000216922F440720A43A36922F08001D4F833
:1013B00004E0E268194360450160C262C0F828E0B9
:1013C00002D16169CCF8301001214161002084F81C
:1013D000461084F83E1084F83F1084F8401084F8DA
:1013E000411084F8421084F8431084F8441084F8C3
:1013F000451084F83D1010BD0068B0F1804F18BF53
:10140000704781B041F21C00C4F20200016841F053
:1014100001010160006800F001000090009801B037
:101420007047000090F83C20012A4FF0020200F0C3
:10143000C58080B580F83D20D0F800C04FF67772A7
:10144000DCF8083023EA0202CCF808200B684F2BA6
:1014500028DC1F2B44DD202B45D0302B43D0402BE4
:1014600040F0AE80D1F804E0C968DCF82030DCF848
:10147000202022F00102CCF82020DCF8182022F0F5
:10148000F00242EA011123F00A0242EA0E02CCF80D
:101490001810CCF82020DCF8081041F0470121F0AA
:1014A000300180E06F2B27DDB3F5005F48D0B3F546
:1014B000805F7AD0702B40F08380D1E901E3C96866
:1014C000DCF8082043EA0E0322F47F4243EA0121BC
:1014D0001143CCF80810DCF8081041F0770162E005
:1014E0000BB1102B6CD1DCF8081021F070011943FE
:1014F00041F0070157E000BF502B35D0602B5FD182
:10150000D1F804E0C968DCF82030DCF8202022F0B3
:101510001002CCF82020DCF8182022F4704242EAB5
:10152000013123F0A00242EA0E12CCF81810CCF8D8
:101530002020DCF8081041F0670121F0100132E0B2
:10154000D1E901E3C968DCF8082043EA0E0322F47C
:101550007F4243EA01211143CCF80810DCF808105F
:1015600041F480411FE000BFD1F804E0C968DCF815
:101570002030DCF8202022F00102CCF82020DCF81A
:10158000182022F0F00242EA011123F00A0242EA96
:101590000E02CCF81810CCF82020DCF8081041F02E
:1015A000570121F02001CCF808100022012180F819
:1015B0003D10002180F83C10BDE880401046704787
:1015C0000122F3E790F83C30012B04BF0220704762
:1015D0004FEAB202032A3DD82DE9F043DFE802F0DA
:1015E00002407CB6036842F600461D6A1A6AC4F2DD
:1015F000010622F001021A621A465C6852F818CFFE
:10160000B3428E68D1F800E025F0020545EA0605F0
:101610000CD1CE68D1E9057824F4407425F00C058E
:1016200026F004063C43354344EA08042CF07307D3
:1016300047EA0E075C609F614F6809695F631D623E
:101640009F6947F008079F619F6927F004079F6122
:10165000ACE000BF0121002280F83C200846704722
:10166000036842F600461D6A1A6AC4F2010622F0B7
:1016700010021A621A46D3F804C052F8184FB34247
:101680008E68D1F800E025F0200545EA06150FD157
:10169000CE68D1E905986FF0400725F0C00507EA4C
:1016A000061635432CF4406748EA090647EA860CDB
:1016B00024F4E64444EA0E27C3F804C09F614F684F
:1016C00009699F631D629F6947F400679F619F6975
:1016D00027F480679F6168E0036842F600461D6A50
:1016E0001A6AC4F2010622F480721A621A46D3F80A
:1016F00004C052F81CEFB3428E680C6825F40075E4
:1017000045EA06250FD1CE68D1E90598360240F2A8
:10171000FF4725F44065BE4335432CF4405748EA63
:10172000090647EA061C2EF073072743C3F804C0D6
:10173000DF614F680969DF631D62DF6947F00807F1
:10174000DF61DF6927F00407DF612FE0036842F6FD
:101750000047D3F820C01A6AC4F2010722F480526D
:101760001A621A465C6852F81C5FD1F800E08E6875
:10177000BB4204D14F6924F4804444EA87142CF41A
:10178000005747EA063725F4E64646EA0E265C602F
:10179000DE614E6809691E641F62DF6947F40067F5
:1017A000DF61DF6927F48067DF610902136819438D
:1017B00011600021BDE8F043002280F83C2008467B
:1017C00070470000002804BF0120704710B5044690
:1017D00090F83D0028B9002084F83C00204600F035
:1017E00067F8022084F83D00206840F2FF73026829
:1017F000C4F2000342F6004C9842C4F2010C15DC1E
:10180000B0F1804F1AD040F20041C4F2000188428A
:1018100014D0984218DCB0F1804F1DD040F2004146
:10182000C4F20001884217D01AE000BF604505D01D
:1018300040F60001C4F200018842EAD1A16822F01A
:1018400070020A439842E6DD604505D040F600018B
:10185000C4F20001884203D1216922F440720A4394
:10186000A36922F08001D4F804E0E26819436045DE
:101870000160C262C0F828E002D16169CCF8301082
:1018800001214161002084F8461084F83E1084F85C
:101890003F1084F8401084F8411084F8421084F816
:1018A000431084F8441084F8451084F83D1010BDAE
:1018B0007047000041B1082910D0042914BF00F17D
:1018C000410200F13F020BE090F83E20012A1CBFCC
:1018D00001207047022280F83E2013E000F1400210
:1018E0001278012A1CBF012070470222082907D064
:1018F000042914BF80F8412080F83F2002E000BF97
:1019000080F84020006801F01F010122036A8A402C
:1019100023EA02010162036A42F64441C4F2010172
:101920001A43A1F14403984202620FD040F2FF71C2
:10193000C4F20001884213DCB0F1804F1CD040F2A9
:101940000041C4F20001884216D01AE00A6842F44D
:1019500000420A6040F2FF71C4F200018842EBDDF0
:1019600042F60041C4F20101884205D040F6000170
:10197000C4F20001884204D1816801F00701062900
:1019800003D0016841F001010160002070470000B0
:101990007047000070470000B0B582B00446006890
:1019A0000168C368426901F02F05202D03F020056E
:1019B00006D12DB1204602B0BDE8B04001F074BDA3
:1019C0005FEA017C1EBF02F0010E03F4907212EB7D
:1019D0000E0243D1226BCD0618D5012A16D113F081
:1019E000100213D000210191016801914168019119
:1019F0000199406940063BD4A08DE18DE28D002A1B
:101A000018BF884240F0F28102B0B0BD0A0640F132
:101A1000E78013F0800200F0E38094F84110212960
:101A2000F2D1A168B1F5805F03D12169002900F0EE
:101A30006382216A4A1C226209784160E18C013983
:101A40000A04E184E0D1C16821F08001C160C1686D
:101A500041F04001C16002B0B0BD00BFCA0718BF6D
:101A600013F4807240F0D0804A0700F1D380D8E0B0
:101A7000E06B016849688AB2002AC5D0A38D9A42FA
:101A8000C2D2E1858069202800F09E80206850E85D
:101A9000030F216820F4807041E80302DAB1206866
:101AA00050E8030F216820F4807041E8030292B1EE
:101AB000206850E8030F216820F4807041E8030299
:101AC0004AB1206850E8030F216820F4807041E893
:101AD0000302002ADAD1206850E8050F216820F0BF
:101AE000010041E80502C2B3206850E8050F2168F3
:101AF00020F0010041E805027AB3206850E8050FA4
:101B0000216820F0010041E8050232B3206850E866
:101B1000050F216820F0010041E80502002ADAD112
:101B20001BE000BF206850E8050F216820F040004E
:101B300041E80502DAB1206850E8050F216820F07D
:101B4000400041E8050292B1206850E8050F216885
:101B500020F0400041E805024AB1206850E8050F36
:101B6000216820F0400041E80502002ADAD1202057
:101B700084F8420000202063206850E8030F2168A9
:101B800020F0100041E80302DAB1206850E8030FAA
:101B9000216820F0100041E8030292B1206850E86B
:101BA000030F216820F0100041E803024AB12068C9
:101BB00050E8030F216820F0100041E80302002ADA
:101BC000DAD1E06BFEF700FB02206063A08DE18DAF
:101BD000401A81B2204602B0BDE8B040FFF7D8BE3F
:101BE00049067FF511AF13F040013FF40DAFC16816
:101BF00021F04001C1602021204684F8411002B04C
:101C0000BDE8B04000F070BA626C42F0010262645C
:101C10004A0706D5BEF1000F03D0626C42F0020203
:101C200062648A0706D5BEF1000F03D0626C42F0F1
:101C300004026264BCF1000F06D55EEA050203D01F
:101C4000626C42F008026264626C002A3FF4DCAE0F
:101C5000890604D51DB1204601F026FC20684069A4
:101C6000616C00F0400001F00801401800F0B680FF
:101C7000206850E8030F216820F4907041E80302C7
:101C8000BAB3206850E8030F216820F4907041E84F
:101C9000030272B3206850E8030F216820F49070AB
:101CA00041E803022AB3206850E8030F216820F4BA
:101CB000907041E80302002ADAD11AE0206850E867
:101CC000050F216820F0010041E80502DAB1206823
:101CD00050E8050F216820F0010041E8050292B1AB
:101CE000206850E8050F216820F0010041E8050256
:101CF0004AB1206850E8050F216820F0010041E852
:101D00000502002ADAD1206B012824D1206850E88E
:101D1000030F216820F0100041E80302DAB12068C7
:101D200050E8030F216820F0100041E8030292B14F
:101D3000206850E8030F216820F0100041E80302FA
:101D40004AB1206850E8030F216820F0100041E8F4
:101D50000302002ADAD1202084F842000020206308
:101D600020684069400640F1C180206850E8050FB6
:101D7000216820F0400041E80502DAB1206850E80F
:101D8000050F216820F0400041E8050292B120686B
:101D900050E8050F216820F0400041E805024AB1F3
:101DA000206850E8050F216820F0400041E8050256
:101DB000002ADAD1E06B002800F0988043F29D41C0
:101DC000C0F600014163FEF723FA00283FF41CAE81
:101DD000E06B416B02B0BDE8B04008472046FFF71A
:101DE000D9FD0020606402B0B0BD00BF401A00BF42
:101DF000216851E8031F226821F4907142E803131F
:101E0000BBB3216851E8031F226821F4907142E8B6
:101E1000031373B3216851E8031F226821F4907102
:101E200042E803132BB3216851E8031F226821F411
:101E3000907142E80313002BDAD11AE0216851E8CF
:101E4000051F226821F0010142E80513DBB121687A
:101E500051E8051F226821F0010142E8051393B102
:101E6000216851E8051F226821F0010142E80513AD
:101E70004BB1216851E8051F226821F0010142E8B9
:101E80000513002BDAD1202184F8421000212163B0
:101E9000216851E8031F226821F0100142E8031372
:101EA000DBB1216851E8031F226821F0100142E8EC
:101EB000031393B1216851E8031F226821F0100138
:101EC00042E803134BB1216851E8031F226821F057
:101ED000100142E80313002BDAD1022281B220461E
:101EE000626302B0BDE8B040FFF752BD204602B0C9
:101EF000BDE8B040FFF74EBD216A31F8022B6FF309
:101F00005F224260216299E5002804BF01207047EA
:101F100010B5044690F8410028B9002084F840002C
:101F2000204600F063F8242084F841002068D4E9BA
:101F30000212C36823F40053C360036923F44053BF
:101F40001A430261D4E904231143C268194341F2E0
:101F50000C639A431143C1604169A26921F4407145
:101F6000114343F60002C4F201029042416103D0E2
:101F7000FEF74EFF02E000BFFEF75EFFD4E900234C
:101F8000192148439900B0FBF1F048F21F5CC5F2FB
:101F9000EB1CA0FB0C314FF69C734909C0F6FF7394
:101FA00001FB0300322303EB0010A0FB0C03F02025
:101FB00000EA531000EB0110C3F343110844906092
:101FC0001069202120F490401061506920F02A000F
:101FD0005061D06840F40050D0600020606484F804
:101FE000411084F84210606310BD00002DE9F041FB
:101FF00086B040F600050446C4F20105006805F508
:10200000405100278842049702D006B0BDE8F08115
:1020100041F21800C4F20200016802AE41F48041AE
:102020000160016840F2440801F480410191019986
:102030000168C4F2020841F0040101600068314601
:1020400000F00400019001984FF40070029002200B
:102050000390032005902846FEF75CFA4FF4806059
:10206000CDE90207284631460497FEF753FA40F2BD
:10207000944508F11400C2F200058026C5E9000766
:102080002846C5E90276C5E90477C5E90677FEF773
:10209000E9F9002818BFFEF791F8E5636C6240F299
:1020A000D845C2F2000510200021C5E9008028466D
:1020B000C5E90216C5E90411C5E90611FEF7D2F912
:1020C000002818BFFEF77AF8252000210022A5631A
:1020D0006C62FEF77FFD2520FEF76AFD06B0BDE8C5
:1020E000F08100007047000070470000FEE700002C
:1020F00070B50368044653F8140F400711D40E4618
:10210000481C29D086BB00BF1868400527D4FEF7BD
:102110000FFB236853F8140F400737D518684007A2
:10212000F2D5002070BD00BF18684007F9D41868C8
:10213000400514D418684007F3D4186840050ED43D
:1021400018684007EDD41868400508D4186840079F
:102150004FF0000048BF70BD18684005E4D56FF42B
:1021600080601860042012E0154603E053F8140F55
:102170004007D6D418684005F1D4FEF7D9FA401BC1
:102180002368B042F2D958694007EFD420200021DB
:102190002022216384F83D2084F83E10226C1043F5
:1021A0002064012084F83C1070BD00002DE9F0414E
:1021B000054600681E46144601F47F0201338FB2C3
:1021C00042D0DDF81880B2F5803F40F0878040694A
:1021D0003840C01BB0FA80F04009A04240F0C880EF
:1021E0004EB924E040693840C01BB0FA80F0400985
:1021F000A04240F0BD80FEF79BFAA0EB08012868E2
:10220000B142EFD941693940C91BB1FA81F149099D
:10221000A142E7D19BE000BF40693840C01BB0FA43
:1022200080F04009A0424FF0000040F0A280FEF78D
:102230007FFA286841693940C91BB1FA81F149091F
:10224000A142E9D183E000BFB2F5803F24D100BFB5
:1022500041693940C91BB1FA81F14909A14240F0F5
:10226000878041693940C91BB1FA81F14909A1420E
:1022700040F07E8041693940C91BB1FA81F14909BA
:10228000A14275D141693940C91BB1FA81F14909AF
:10229000A142DDD06CE000BF81693940C91BB1FAB1
:1022A00081F14909A14263D181693940C91BB1FA61
:1022B00081F14909A1425BD181693940C91BB1FA59
:1022C00081F14909A14253D181693940C91BB1FA51
:1022D00081F14909A142DFD04AE000BF806938405E
:1022E000C01BB0FA80F04009A04241D146B923E0BA
:1022F00080693840C01BB0FA80F04009A04237D155
:10230000FEF716FAA0EB08012868B142F0D98169FE
:102310003940C91BB1FA81F14909A142E8D116E05F
:1023200080693840C01BB0FA80F04009A0424FF0ED
:10233000000018BFBDE8F081FEF7FAF9286881694E
:102340003940C91BB1FA81F14909A142E8D1002005
:102350002021286385F83D1085F83E00296C41F066
:102360002001296485F83C000120BDE8F08100BF10
:102370000020BDE8F0810000F0B581B0044600689F
:102380001D4643698FB203EA0701B94202D100201A
:1023900001B0F0BD4169164601323FD049053FD436
:1023A000CEB100BFFEF7C4F9411B2068B14203D98A
:1023B00041693940B94215D141693940B942E6D045
:1023C00041694905EED52BE041693940B942DED07B
:1023D0004169490524D4FEF7ABF9206841693940C9
:1023E000B942F1D0202023E041693940B942CED032
:1023F0004169490514D441693940B942C7D041699E
:1024000049050DD441693940B942C0D041694905F7
:1024100006D441693940B942B9D041694905E3D58B
:10242000016841F4007101606FF480614161042032
:1024300000212022216384F83D2084F83E10226C84
:102440001043206484F83C10012001B0F0BD00006E
:1024500070B50368044653F8140F000611D40E46F5
:10246000481C29D086BB00BF1868400527D4FEF75A
:102470005FF9236853F8140F000637D51868000673
:10248000F2D5002070BD00BF18680006F9D41868A6
:10249000400514D418680006F3D4186840050ED41B
:1024A00018680006EDD41868400508D418680006BE
:1024B0004FF0000048BF70BD18684005E4D56FF4C8
:1024C00080601860042012E0154603E053F8140FF2
:1024D0000006D6D418684005F1D4FEF729F9401B50
:1024E0002368B042F2D958690006EFD420200021B9
:1024F0002022216384F83D2084F83E10226C104392
:102500002064012084F83C1070BD000080B582B0CA
:1025100041F21400C4F202000168002241F00101FE
:1025200001600068002100F00100019001980E2078
:10253000FEF750FB0E20FEF73BFB0F200021002290
:10254000FEF748FB0F2002B0BDE88040FEF730BB2D
:1025500070B584B041F21800C4F20200016841F283
:10256000000441F0100101600168C4F2010401F0AF
:102570001001009100990168002241F020010160E2
:1025800001684FF4005501F02001009100990168A5
:10259000002641F004010160016801F0040100918E
:1025A0000099016841F00801016000684FF4005192
:1025B00000F00800009000982046FEF7B3F80120D4
:1025C000CDE9010602200390694620460095FDF7FB
:1025D000A1FF04B070BD000080B540F21C5045F270
:1025E0000041C2F20000C4F2000141F68022002343
:1025F0004FF4804CC0F2060280E80E00C0E9033CB4
:10260000C0E90533C0E90733FEF798F8002808BF92
:1026100080BDBDE88040FDF7D1BD000010B594B08D
:1026200040F270500021C2F200004FF0804240F2B0
:10263000CF2340F2CF740E91CDE90C110991CDE971
:102640000711CDE90511CDE90311CDE90111C0E96B
:102650000023C0E9021401618161FEF757FE0028E2
:1026600018BFFDF7ABFD4FF480500B9040F2705057
:10267000C2F200000BA9FEF7D5FE002818BFFDF737
:102680009DFD40F27050C2F20000FFF79BF8002859
:1026900018BFFDF793FD40F270500024C2F2000015
:1026A00008A9CDE90844FEF7F1FD002818BFFDF7A1
:1026B00085FD6020CDE9010440F27050C2F20000B7
:1026C00001A9002203940594FEF77CFF002818BF9F
:1026D000FDF774FD40F27050C2F2000001A904221F
:1026E000FEF770FF002818BFFDF768FD40F270503C
:1026F000C2F2000001A90822FEF764FF002818BFFB
:10270000FDF75CFD40F27054C2F2000401A92046BE
:102710000C22FEF757FF002818BFFDF74FFD206879
:102720000021B0F1804F129102D014B010BD00BF53
:1027300041F21800C4F20200016841F00401016096
:10274000006810A900F004000F900F980F2010905F
:1027500002201190139040F60000C4F20100FDF732
:10276000D9FE14B010BD000080B540F2B85043F659
:102770000001C2F20000C4F2010100234FF00C0C72
:102780004FF4E13280E80E00C0E90333C0E905C32D
:10279000C361FFF7B9FB002808BF80BDBDE88040DA
:1027A000FDF70CBDFEE70000FEE7000010B582B0AB
:1027B000D2F804E09C46137854787246CDE9004C78
:1027C00000F0A6F902B010BD2DE9F04381B040F24F
:1027D000104440F21C55C2F20004AE20C2F20005C3
:1027E00060704FF0FF36284678212246022300967B
:1027F000FEF756F84FF0200828467821224602239B
:1028000084F801800096FEF74BF8102728467821BF
:102810002246022367700096FEF742F8B0206070EF
:1028200028467821224602230096FEF739F8C82070
:10283000607028467821224602230096FEF730F881
:102840004FF00009284678212246022384F801909F
:102850000096FEF725F82846782122460223677065
:102860000096FEF71DF84020607028467821224629
:1028700002230096FEF714F8812060702846782124
:10288000224602230096FEF70BF8DF2060702846F0
:102890007821224602230096FEF702F8A1206070FC
:1028A00028467821224602230096FDF7F9FFA6204C
:1028B000607028467821224602230096FDF7F0FF3B
:1028C000A820607028467821224602230096FDF752
:1028D000E7FF3F20607028467821224602230096B9
:1028E000FDF7DEFFA42060702846782122460223EF
:1028F0000096FDF7D5FFD320607028467821224648
:1029000002230096FDF7CCFF2846782122460223B9
:1029100084F801900096FDF7C3FFD520607028462B
:102920007821224602230096FDF7BAFFF02060705E
:1029300028467821224602230096FDF7B1FFD920D0
:10294000607028467821224602230096FDF7A8FFF2
:102950002220607028467821224602230096FDF747
:102960009FFFDA20607028467821224602230096D5
:10297000FDF796FF12206070284678212246022338
:102980000096FDF78DFFDB206070284678212246F7
:1029900002230096FDF784FF284678212246022371
:1029A00084F801800096FDF77BFF8D20607028463B
:1029B0007821224602230096FDF772FF14206070F2
:1029C00028467821224602230096FDF769FF40F24F
:1029D0001000C2F200004FF48061FDF7BCFB00F074
:1029E000F5FBAF206070284678212246022300962E
:1029F000FDF756FF01B0BDE8F083000080B540F25E
:102A00001000C2F200004FF48061FDF7A4FB80BD0E
:102A10002DE9F04F01F0070CDDF824E003EB0C0486
:102A2000092C4FEAD10847D345B2002D20D43F29C5
:102A30001ED8CCF1080BFF2323FA0BF940F2100348
:102A4000C2F2000302FA0CF603EBC813BEF1000F4A
:102A500018BFF64313F800A046EA09070AEA070977
:102A60006FF0FF0747FA0BF73E4046EA09061E548F
:102A7000002D4BD4372949D804F1F703CCF10807CE
:102A8000FA40DBB24FF4FF7707FA03F340F2100786
:102A900008F10101C2F2000707EBC111BEF1000FFE
:102AA00018BFD2430F5C42EA030637409A433A43C9
:102AB0000A54BDE8F08F00BF43B2002B26D43F2953
:102AC00088BFBDE8F08F611EC9B24FF4FF7340F2BA
:102AD000100603FA01F1CCF10803FF27C2F2000649
:102AE00002FA0CF2DF4006EBC816BEF1000F18BF69
:102AF000D2431743355C0F432F406FF0FF0545FA73
:102B000003F323EA0101114039433154BDE8F08F4A
:102B10002DE9F04F93B0002B0592119100F05283F4
:102B20008146DDE91C0A1D46BAF1000FD0464FEA86
:102B3000D00218BF4FF0FF38082800F0070B05D26D
:102B4000BBF1000F40F023833CE300BF1198CDF8A8
:102B5000189000F00707C7F10801FF20C840129045
:102B60006FF0FF0040FA01F91046CDF808B00E9161
:102B7000012A019298BF012000F00301079105EBA3
:102B80004501002F0F914FEA85011091CDE9030512
:102B900000F0E081791EC9B24FF4FF7202FA01F130
:102BA0000D91C9430C9169000A9100F01C01484243
:102BB0004FF0000ABE460B9009950FE00F980AF1FE
:102BC000010A01300F900A98AA4500F101000A900D
:102BD000099800F10100099000F0CE8206980AEBF6
:102BE00000014AB2002AE9D403985FFA81FC042864
:102BF00006D200210798002840F0F680DEE700BFEB
:102C000005990324CDF820A008E000BF0B980434F8
:102C1000204403281098014400F0DE80119800EB56
:102C2000C40AAAF11802D5B23F2D30D808984FEA4D
:102C3000D50B0A5C40F21000C2F2000002FA07F362
:102C400000EBCB17129E83EA080317F80C001E4313
:102C5000304003EA09031843372D07F80C00774684
:102C600015D80E9B0BF10100DA4040F21003C2F2BE
:102C7000000303EBC0100D9D82EA080210F80C302F
:102C800015432B400C9D2A401A4300F80C20AAF152
:102C90001000C2B23F2A30D8099840F2100511F84E
:102CA00000B0D308C2F200050BFA07F005EBC3161B
:102CB000129D80EA080016F80C7005433D4000EABA
:102CC000090077462843372A06F80C0015D8581C07
:102CD0000E9A40F21003C2F200032BFA02F203EB49
:102CE000C0100D9D82EA080210F80C3015432B40ED
:102CF0000C9D2A401A4300F80C20AAF10800C2B229
:102D00003F2A30D80A9840F2100511F800B0D308D5
:102D1000C2F200050BFA07F005EBC316129D80EA1C
:102D2000080016F80C7005433D4000EA090077469C
:102D30002843372A06F80C0015D8581C0E9A40F282
:102D40001003C2F200032BFA02F203EBC0100D9D38
:102D500082EA080210F80C3015432B400C9D2A40E3
:102D60001A4300F80C205FFA8AF23F2A3FF64EAF72
:102D70000F9840F2100511F800A0D308C2F2000528
:102D80000AFA07F005EBC316129D80EA080016F850
:102D90000C7005433D4000EA090077462843372A76
:102DA00006F80C003FF632AF581C0E9A40F21003A2
:102DB000C2F200032AFA02F203EBC0100D9D82EA70
:102DC000080210F80C3015432B400C9D2A401A4382
:102DD00000F80C201AE700BF049DDDF820A0E11EDA
:102DE000079800283FF4EAAE119800EBC100C4B286
:102DF0003F2C31D801FB05A0059A40F21005125C6A
:102E0000E308C2F2000502FA07F005EBC315129FB2
:102E100080EA080015F80C6007433E4000EA09000C
:102E2000304305F80C00049D7746372C14D8581C05
:102E30000E9B0D9CDA4040F21003C2F2000303EB3C
:102E4000C01082EA080210F80C30144323400C9C96
:102E500022401A4300F80C20079801283FF4AEAE38
:102E600011984A1C00EBC200C4B23F2C31D802FBBF
:102E700005A0059A40F21005125CE308C2F20005B5
:102E800002FA07F005EBC315129F80EA080015F857
:102E90000C6007433E4000EA0900304305F80C008F
:102EA000049D7746372C14D8581C0E9B0D9CDA4095
:102EB00040F21003C2F2000303EBC01082EA0802E2
:102EC00010F80C30144323400C9C22401A4300F8A5
:102ED0000C20079802283FF471AE11988A1C00EB71
:102EE000C200C1B23F293FF669AE02FB05A0059AB8
:102EF00040F21004125CCB08C2F2000402FA07F0A0
:102F000004EBC314129E80EA080014F80C50064328
:102F1000354000EA09002843049D372904F80C00D5
:102F20003FF64CAE0E99581C22FA01F140F2100205
:102F3000C2F2000202EBC0100D9B81EA080110F8FA
:102F40000C200B431A400C9B1940114300F80C1045
:102F500034E600BF69000E9100F01C01C1F1000EC3
:102F60004FF0000AAB460DE00F980AF1010A01305C
:102F70000F900E98AA4500F101000BF1010B0E9085
:102F800000F0FA8006980AEB00014AB2002AEBD45E
:102F90000398CAB2042805D200210798002840F0FF
:102FA0008980E1E7059B032107E000BF04310EEBB8
:102FB000010003281098034476D0119800EBC10556
:102FC000A5F11804E6B23F2E0ED9A5F11004E0B227
:102FD0003F2824D9A5F10804E0B23F2838D9E8B247
:102FE0003F28E3D84BE000BF40F2100013F80A601E
:102FF00004F0F804C2F2000000EB0414129F86EA09
:103000000806A05C46EA070C00EA0C0006EA09067E
:103010003043A054A5F11004E0B23F28DAD840F2C2
:10302000100713F80B0004F0F806C2F2000707EBD4
:103030000616129F80EA0800B45C0743274000EAA6
:1030400009003843B054A5F10804E0B23F28C6D8BF
:103050000E9840F21006185C04F0F807C2F2000661
:1030600006EB0717129C80EA0800BE5C044326406A
:1030700000EA09003043B854E8B23F2896D80F98C8
:1030800040F21006185C05F0F807C2F2000606EBE5
:103090000717129D80EA0800BE5C05432E4000EA37
:1030A00009003043B85481E7049D0339079800288C
:1030B0003FF45AAF119800EBC103D8B23F2815D89E
:1030C00001FB05A0059F03F0F803385C40F21007F0
:1030D000C2F2000707EB0313129E80EA08009F5C10
:1030E0000643374000EA09003843985407980128FE
:1030F0003FF43AAF11984D1C00EBC503D8B23F28FE
:1031000016D80498059F05FB00A003F0F803385C6F
:1031100040F21007C2F2000707EB0313129E80EA89
:1031200008009F5C0643374000EA09003843985482
:103130000798049D02283FF417AF11988B1C00EBF1
:10314000C301C8B23F283FF60FAF03FB05A0059BA4
:1031500001F0F801185C40F21003C2F2000303EB27
:103160000111129F80EA08008B5C07433B4000EA94
:10317000090018438854F7E6DDF808B0DDF8189028
:10318000019ADDE91C0ABBF1000F1BD0D5B11199E2
:1031900000F0F80001440598CEB202FB05046D4230
:1031A0004FF0FF30471C2044427807EB0900C0B2C3
:1031B00031465B46CDF800A0FFF72AFCE819013044
:1031C0003846EFD113B0BDE8F08F00002DE9F04F85
:1031D00081B040F21248C2F200084020454640F259
:1031E000104740F21C5605F8010BC2F20007B02050
:1031F000C2F2000678704FF0FF34304678213A462C
:1032000002230094FDF74CFB4FF0000A3046782172
:103210003A46022387F801A00094FDF741FB4FF0E6
:10322000100B304678213A46022387F801B000940B
:10323000FDF736FB40F21009C2F200092846494664
:103240008022FCF76FFF30467821424681230094AC
:10325000FDF726FBB1207870304678213A460223EC
:103260000094FDF71DFB304678213A46022387F88B
:1032700001A00094FDF714FB304678213A46022362
:1032800087F801B00094FDF70BFB09F18001284697
:103290008022FCF747FF3046782142468123009484
:1032A000FDF7FEFAB2207870304678213A460223C4
:1032B0000094FDF7F5FA304678213A46022387F864
:1032C00001A00094FDF7ECFA304678213A4602233B
:1032D00087F801B00094FDF7E3FA09F580712846FC
:1032E0008022FCF71FFF304678214246812300945C
:1032F000FDF7D6FAB3207870304678213A4602239B
:103300000094FDF7CDFA304678213A46022387F83B
:1033100001A00094FDF7C4FA304678213A46022312
:1033200087F801B00094FDF7BBFA09F5C071284693
:103330008022FCF7F7FE3046782142468123009434
:10334000FDF7AEFAB4207870304678213A46022371
:103350000094FDF7A5FA304678213A46022387F813
:1033600001A00094FDF79CFA304678213A460223EA
:1033700087F801B00094FDF793FA09F5007128462B
:103380008022FCF7CFFE304678214246812300940C
:10339000FDF786FAB5207870304678213A46022348
:1033A0000094FDF77DFA304678213A46022387F8EB
:1033B00001A00094FDF774FA304678213A460223C2
:1033C00087F801B00094FDF76BFA09F520712846E3
:1033D0008022FCF7A7FE30467821424681230094E4
:1033E000FDF75EFAB6207870304678213A4602231F
:1033F0000094FDF755FA304678213A46022387F8C3
:1034000001A00094FDF74CFA304678213A46022399
:1034100087F801B00094FDF743FA09F5407128469A
:103420008022FCF77FFE30467821424681230094BB
:10343000FDF736FAB7207870304678213A460223F5
:103440000094FDF72DFA304678213A46022387F89A
:1034500001A00094FDF724FA304678213A46022371
:1034600087F801B00094FDF71BFA09F56071284652
:103470008022FCF757FE3046782142468123009493
:10348000FDF70EFA01B0BDE8F08F000070470000B4
:1034900070470000FDF724BB70470000406A002120
:1034A000C185C184FEF776BA81B090F84210222916
:1034B00021D183680246B3F5805F09D152F8281FF5
:1034C00052F8183C002B63D003685B680AE000BF29
:1034D00052F8281F13B90369002BF5D003685B6805
:1034E00003F07F030B70116801311160C18D013948
:1034F0000A04C18502D001B0704700BF0168CA68E4
:1035000022F02002CA60CA6822F48072CA604A6946
:1035100022F001024A61202180F84210002141631B
:10352000026B012A3CD10163016851E8031F026864
:1035300021F0100142E80313DBB1016851E8031FD9
:10354000026821F0100142E8031393B1016851E8C9
:10355000031F026821F0100142E803134BB1016818
:1035600051E8031F026821F0100142E80313002B09
:10357000DAD101680A68D20606D5002200920A68EC
:103580000092496800910099818D01B0FEF700BA60
:10359000026852686FF35F2221F8022B8162A5E76F
:1035A00001B0FEF79FBD000040F2B850C2F200002B
:1035B000FEF7F2B9FEE7000090B0FDF79FFA002495
:1035C0000120CDE90B44CDE9094406900A904FF45F
:1035D000E0104FF4803102250F9006A8CDE90714C2
:1035E000CDE90D51FDF73CFC20B1EFF3108072B630
:1035F000FEE700BF0F20CDE901054FF48060CDE963
:10360000040401A802210394FDF720FB20B1EFF38D
:10361000108072B6FEE700BFFEF79AFFFEF776FF56
:10362000FEF7FCFFFFF7A0F8FEF7D6FF40F2705060
:10363000C2F200000421FEF73DF9C820FCF756FF56
:10364000FFF7C2F843F67C14C0F60004FFF7D6F982
:103650001420002122460023FFF7A8F8FFF7B6FD4B
:103660004FF47A70FCF742FFF0E702E008C8121F3F
:1036700008C1002AFAD170477047002001E001C15B
:10368000121F002AFBD1704700000000000000005C
:1036900001020304060708090000000001020304F8
:1036A000010202030405060708090A0B0C0D0E0FA0
:1036B00010100000000000000080C0C0E0E0C0C0AA
:1036C00000000000000000000000000000000000FA
:1036D00000000000000000000000000000000000EA
:1036E00000000000000000000000000000000000DA
:1036F0000000000000000000000080E0F0F0F8F89A
:10370000F8F8F0E0000000000000000000000000F9
:10371000001F3F7F7F7F7F3F0F0000000000000001
:103720000000000000000000000000000000000099
:103730000000000000000000000000000000000089
:103740000000000000000000000000000000000079
:103750000000000F1F3F3F3F3F1F0F03010000000D
:103760000000000000000000000000000000000059
:103770000000000000000000000000000000000049
:103780000000000080C0C0E0E0E0F0F0E0E0C0C079
:10379000C0C0C000000000000000000000000000E9
:1037A0000000000000000000000000000000000019
:1037B0000000000000000000000000000000000009
:1037C00000000000000000000000000000000000F9
:1037D00000000000000000000000000000070F0FC4
:1037E0000FDFFFFFFFFFFFFFFFFFFF6F0300000082
:1037F00000000000000000000000000000000000C9
:1038000000000000000000000000000000000000B8
:1038100000000000000000000000000000000000A8
:103820000000000000000000000000000000000098
:10383000000000000080C0E0F0FCFFFF7F1F073F9A
:10384000FFFFFFFFE000000000000000000000009C
:103850000000000000000000000000000000000068
:103860000000000000000000000000000000000058
:103870000000000C1E1E1E3E3E3E3E7E7C7C7C7C7C
:1038800078F8F8F8F8F8F8F8F8FC7C7E7EFFFFFF8F
:10389000FF070301000000000000030F3FFFFFFED1
:1038A000F8F8F0F0E0E0E0C0C0C0C0C0C0C0C0C0E8
:1038B000C0C0C0C0E0E0E0F0F0F0F0600000000048
:1038C00000000000000000000000000000000000F8
:1038D00000000000000000000000000000000000E8
:1038E0000000000000001F7FFFFFF8F0E0800000F4
:1038F0000080C0F0FCFFFF7F1F07010101030303ED
:103900000303070707070707070707070707030357
:1039100001010100000000000000000000000000A4
:103920000080808080808080808080808080808017
:103930008080808080808080808080808080808087
:10394000808081878F8F9F9F9F9F9F8F8F8783818D
:103950008080808080808080808080808080808067
:103960008080808080808080809080808080808047
:10397000808080808080808080800000593F0000AF
:10398000B2360008A839000800000020100000002E
:103990006A360008B839000810000020F809000055
:1039A0007A3600080000000001000000100000004E
:0839B0000024F40000000000F7
:04000005080000ED02
:00000001FF
